:020000040800F2
:100000002807002089010008C3110008570F0008C5
:10001000C11100088B0200083F1300080000000017
:10002000000000000000000000000000C7110008F0
:100030008D02000800000000C5110008C911000869
:10004000A3010008A3010008A3010008A301000800
:10005000A3010008A3010008A3010008A3010008F0
:10006000A3010008A3010008A3010008A3010008E0
:10007000A3010008A3010008A3010008A3010008D0
:10008000A3010008A3010008A3010008A3010008C0
:10009000A3010008A3010008A30100088F020008C3
:1000A0002D120008511200084512000839120008EC
:1000B0005D120008A3010008A3010008A3010008C5
:1000C000A3010008A3010008A3010008A301000880
:1000D000A3010008A3010008A3010008A301000870
:1000E000A3010008A3010008A301000800F002F822
:1000F00000F03AF80AA090E8000C82448344AAF188
:100100000107DA4501D100F02FF8AFF2090EBAE885
:100110000F0013F0010F18BFFB1A43F0010318473B
:100120007C1400009C140000103A24BF78C878C1E9
:10013000FAD8520724BF30C830C144BF04680C60ED
:10014000704700000023002400250026103A28BF35
:1001500078C1FBD8520728BF30C148BF0B60704739
:100160001FB51FBD10B510BD00F058F81146FFF7C0
:10017000F7FF01F05BF900F076F803B4FFF7F2FF48
:1001800003BC00F07BF8000009488047094800479D
:10019000FEE7FEE7FEE7FEE7FEE7FEE7FEE7FEE737
:1001A000FEE7FEE704480549054A064B7047000094
:1001B0002B120008ED00000828010020280700206D
:1001C00028030020280300204FF0000200B513464A
:1001D00094469646203922BFA0E80C50A0E80C5067
:1001E000B1F12001BFF4F7AF090728BFA0E80C5018
:1001F00048BF0CC05DF804EB890028BF40F8042B11
:1002000008BF704748BF20F8022B11F0804F18BF7D
:1002100000F8012B7047704770477047754600F033
:1002200029F8AE4605006946534620F0070085468A
:1002300018B020B5FFF7B6FFBDE820404FF000062C
:100240004FF000074FF000084FF0000B21F00701BE
:10025000AC46ACE8C009ACE8C009ACE8C009ACE801
:10026000C0098D4670470446AFF300802046FFF773
:1002700084FF000000487047C80000200149182092
:10028000ABBEFEE7260002007047FEE770474FF462
:10029000807000F025B872B6FEE7000070B5044625
:1002A00000F024F90546601C02D00448007804449C
:1002B00000F01CF9401BA042FAD370BD28000020BA
:1002C000B0F5807F08D105490868401C00EBD0726A
:1002D00022F00102801A0860704700000000002030
:1002E000044910B50A68024202D00860FFF7E8FF2F
:1002F00010BD0000140401402DE9F84FDFF8B8915B
:100300000024A9F1040B23460F2709F1040AABF1DD
:10031000040EC9E00125A5402A40AA427DD1674EBE
:10032000D1F804C0ACEB0608B44532D014DCBCF103
:10033000030F3AD009DCBCF1000F2AD0BCF1010F49
:100340001CD0BCF1020F31D11DE0BCF1110F17D050
:10035000BCF1120F2AD119E0B8F5881F19D006DCBC
:10036000B8F5803F15D0B8F5801F1FD111E0B8F562
:10037000001F0ED0B8F5041F18D10AE0CB6815E0B5
:10038000CB681B1D12E0CB6808330FE0CB680C3341
:100390000CE08B682BB1012B4FF0080303D04561B3
:1003A00004E0042302E0056100E00023FF2A01D8F5
:1003B000064601E000F104064FEA840501D9A5F1E3
:1003C0002005D6F8008007FA05FC28EA0C0803FA95
:1003D00005F548EA0508C6F800804D68ED0062D5CD
:1003E000374DAE6946F00106AE61AD6924F00306F3
:1003F00005F001050095334D06EB050CDCF80850BF
:10040000A607360F07FA06F825EA0805DFF8B880D0
:10041000404503D14FF0000817E044E0DFF8AC801E
:10042000404502D14FF001080FE0DFF8A4804045BD
:1004300002D14FF0020808E0DFF89880404502D171
:100440004FF0030801E04FF0040808FA06F848EA04
:100450000508CCF808804D68D9F80060ED024D46DB
:1004600001D5164300E096432E604D68DAF800602F
:10047000AD02554601D5164300E096432E604D6807
:10048000DBF80060AD035D4601D5164300E09643FE
:100490002E604D68DEF80060ED03754601D5164309
:1004A00000E096432E60641C0D682A46E5407FF408
:1004B00031AFBDE8F88F00000804014000001110C2
:1004C000001002400000014000080140000C014003
:1004D00000100140001401408068084000D0012055
:1004E00070470AB1016170470904FBE70148806861
:1004F00070470000280000200248816802781144FB
:100500008160704728000020074810B5016841F05D
:1005100010010160032000F075F80F2000F006F8CC
:1005200000F024F8002010BD0020024070B50D4DF1
:1005300004464FF47A712878B1FBF0F00A49096853
:10054000B1FBF0F000F0BCFA48B9102C07D2002241
:100550002146501E00F036F800206C6070BD01206E
:1005600070BD000028000020340000200C4808B5B1
:10057000816941F001018161816901F0010100910E
:10058000C16941F08051C161C06900F080500090A4
:100590000448416821F0E06141F00071416008BD0C
:1005A0000010024000000140002809DB00F01F029B
:1005B000012191404009800000F1E020C0F80011C5
:1005C00070470000F0B40E4B1B680C46C3F30223C7
:1005D000C3F10705042D00D90425191D072901D2EF
:1005E000002300E0DB1E012606FA05F1491E21402A
:1005F00099409E40761E16403143F0BC00F0A0BEEC
:100600000CED00E0064900F0070208684FF6FF0312
:10061000184040EA0220034A104308607047000077
:100620000CED00E00000FA052DE9F0470F4605004B
:1006300061D0434E306800F00700B84209D23068FC
:1006400020F0070038433060306800F00700B842FF
:1006500051D128683B4C810712D5400703D560680B
:1006600040F4E06060602878000703D5606840F4DB
:10067000605060606068A96820F0F0000843606026
:100680002878C00728D06868012810D0216802287F
:1006900010D0890700292EDA616821F00301014397
:1006A0006160FFF723FF804641F288390DE0216841
:1006B0008903EFE78901EDE7FFF718FFA0EB0801D9
:1006C000494502D90320BDE8F0876068696800F0F9
:1006D0000C00B0EB810FEFD1306800F00700B8429A
:1006E0000BD9306820F0070038433060306800F0E4
:1006F0000700B84201D00120E5E72878400705D57A
:100700006068E96820F4E0600843606028780007CA
:1007100006D56068296920F4605040EAC100606035
:1007200000F018F86168084AC1F30311515CC84031
:100730000649086006480068FFF7F8FE0020C2E797
:1007400000200240001002408A15000834000020FA
:100750002C0000200E4A51680E4801F00C03042BB7
:1007600011D0082B0FD10C48C1F38343C903C05CDF
:100770000AD55168084AC1F34041921E515C054AAE
:100780005043B0FBF1F07047044948437047000004
:100790000010024000127A007A15000800093D009E
:1007A0002DE9F84F040070D02078C04DC00749D023
:1007B0006868C0F38100012807D06868C0F3810031
:1007C000022809D16868C00306D52868800339D596
:1007D00060680028E7D035E06068B0F5803F0BD056
:1007E00010B1B0F5A02F11D0286820F48030286017
:1007F000286820F4802002E0286840F480302860D7
:10080000606890B1FFF772FE06460AE0286840F47F
:1008100080202860F0E700BFFFF768FE801B642897
:1008200073D828688003F7D50CE0FFF75FFE064613
:1008300005E000BFFFF75AFE801B6428F0D8286847
:100840008003F7D420789A4E80074FF001094FF0CB
:10085000000839D5686810F00C0F07D06868C0F33D
:100860008100022809D16868C00306D4286880077F
:1008700014D52069012808D110E02069B0B1C6F86C
:100880000090FFF733FE074605E00AE1FFF72EFE72
:10089000C01B0228C4D828688007F7D5286861697A
:1008A00020F0F80040EAC10028600DE0C6F80080A2
:1008B000FFF71CFE074604E0FFF718FEC01B0228E6
:1008C00023D828688007F7D4207800072CD57948EA
:1008D000A169D9B1C0F80090FFF708FE074604E00F
:1008E000FFF704FEC01B02280FD8686A8007F7D5FF
:1008F00071484FF4FA510068B0FBF1F0009000BF6E
:100900000098411E0091FAD20EE080E0C0F800800D
:10091000FFF7ECFD074604E0FFF7E8FDC01B0228E7
:1009200075D8686A8007F7D42078400760D5E869F1
:100930000027C00008D4E86940F08050E861E86909
:10094000012700F0805000905C480168C90513D46D
:100950000168834641F480710160FFF7C7FD82465C
:1009600006E000BFFFF7C2FDA0EB0A0064284ED8E6
:10097000DBF80000C005F5D5E06801280AD008B111
:10098000052813D0286A20F001002862286A20F088
:10099000040002E0286A40F001002862E06841F2A9
:1009A000883B98B1FFF7A2FD82460BE0286A40F031
:1009B00004002862EEE700BFFFF798FDA0EB0A01F4
:1009C00059455AD8286A8007F6D50CE0FFF78EFD06
:1009D000824605E0FFF78AFDA0EB0A0159454CD895
:1009E000286A8007F6D41FB1E86920F08050E861DA
:1009F000E06988B36968C1F38101022944D0022803
:100A0000C6F8608004D0FFF771FD044638E034E09A
:100A1000FFF76CFD074604E0FFF768FDC01B0228E6
:100A20002BD828688001F7D4206AB0F5803F05D123
:100A30006868A16820F4003008436860D4E90801C0
:100A40000843696821F4741108436860C6F860902F
:100A5000FFF74CFD044606E025E000BFFFF746FD2A
:100A6000001B022809D828688001F7D51BE000BFC9
:100A7000FFF73CFD001B022802D90320BDE8F88FD8
:100A800028688001F4D40EE00128F7D06868226A53
:100A900000F48031914204D1616A00F47010884200
:100AA00001D00120EAE70020E8E700000010024042
:100AB00000004242800442423400002000700040A6
:100AC00010B5401EB0F1807F01D3012010BD4FF062
:100AD000E02460610F21601700F032FC0020A0616B
:100AE00007202061002010BD7047704770B590F856
:100AF0003C20012A26D0012480F83C40022280F8C4
:100B00003D2003685A689D6822F070060A683243E7
:100B10005A600D4B02689A4208D0B2F1804F05D05E
:100B20000A4B9A4202D00A4B9A4204D1496825F0F6
:100B300080031943916080F83D40002180F83C100B
:100B4000084670BD022070BD002C0140000400402A
:100B50000008004010B5040003D094F83D0010B127
:100B600007E0012010BD002084F83C00204600F082
:100B70001FF8022084F83D00211D206800F074FB5E
:100B8000012084F8460084F83E0084F83F0084F891
:100B9000400084F8410084F8420084F8430084F85F
:100BA000440084F8450084F83D00002010BD00009A
:100BB00008B5214A01682148914226D1816941F452
:100BC000006181618069002200F40060009011469C
:100BD0001820FFF7F7FC1820FFF7E6FC002211466B
:100BE0001920FFF7EFFC1920FFF7DEFC0022114669
:100BF0001A20FFF7E7FC1A20FFF7D6FC0022114667
:100C00001B20FFF7DFFC1B2010E0B1F1804F11D15A
:100C1000C16941F00101C161C069002200F0010019
:100C2000009011461C20FFF7CDFC1C20BDE80840B9
:100C3000FFF7BABC08BD0000002C014000100240C4
:100C400090F83D10012901D001207047022180F861
:100C50003D100168CA6842F00102CA6000680B4991
:100C6000884208D0B0F1804F05D00949884202D0AF
:100C70000849884204D1816801F00701062903D0A0
:100C8000016841F00101016000207047002C014023
:100C900000040040000800400168CA6822F0010218
:100CA000CA6001680A6A41F211131A4207D10A6A3E
:100CB0009B101A4203D10A6822F001020A60012146
:100CC00080F83D100020704770B5044690F83C0055
:100CD0000025012817D0012684F83C60022084F802
:100CE0003D002068826822F0770222F47F42826011
:100CF0000868502838D00DDC20284FD005DC90B390
:100D0000102811D14AE0022070BD302846D040287A
:100D10000AD13BE060282FD070280DD0B0F5805F5D
:100D200003D0B0F5005F12D0012584F83D600020AB
:100D300084F83C00284670BDCB68D1E901212068C9
:100D400000F0C8FA2068816841F0770109E0CB68BB
:100D5000D1E90121206800F0BDFA2068816841F4E2
:100D600080418160E1E719E0CA684968206800F0C5
:100D7000C3FA5021206806E0CA684968206800F07C
:100D8000CCFA6021206800F0AFFACEE7CA68496863
:100D9000206800F0B1FA40212068F4E7226801469B
:100DA0001046F0E7704770B50446006801694FF0DF
:100DB0000005C943890715D4C168C943890711D4FF
:100DC000E91E0161012020772068806980072046A4
:100DD00002D0FFF7E7FF04E000F098F8204600F0AB
:100DE00096F8257720680169C943490717D4C16877
:100DF000C943490713D46FF0040101610220207731
:100E00002068806910F4407F204602D0FFF7CAFFB7
:100E100004E000F07BF8204600F079F825772068A0
:100E20000169C943090716D4C168C943090712D427
:100E30006FF008010161042020772068C0698007F5
:100E4000204602D0FFF7AEFF04E000F05FF8204636
:100E500000F05DF8257720680169C943C90617D4F9
:100E6000C168C943C90613D46FF01001016108209D
:100E700020772068C06910F4407F204602D0FFF739
:100E800091FF04E000F042F8204600F040F825779A
:100E900020680169C943C90708D1C168C943C907A6
:100EA00004D1891E0161204600F032F820680169F2
:100EB000C943090609D4C168C943090605D46FF0BE
:100EC000800101612046FFF70FFE20680169C943D8
:100ED000490609D4C168C943490605D46FF04001E9
:100EE0000161204600F036F820680169C94389068F
:100EF0000BD4C168C943890607D46FF02001016192
:100F00002046BDE87040FFF7F0BD70BD70477047E8
:100F100010B50E4A01680E4C914202D16168491C1D
:100F200061600068B0F1804F0FD12078082801D1AE
:100F300000202070064821780830405C00F03AF824
:100F400000F00AF82078401C207010BD002C0140F1
:100F5000040000207047FEE710B5084C0122102164
:100F60002046FFF7BEFA052000F0FAF920460022DD
:100F7000BDE810401021FFF7B4BA0000000C01409A
:100F800070B50B4D044600F001024FF48061284615
:100F9000FFF7A7FAC4F34002E9142846FFF7A1FAC5
:100FA000C4F38002A9142846BDE87040FFF799BA3F
:100FB000001001402DE9F041104E0F460546002477
:100FC00025FA04F000F0010208213046FFF789FA03
:100FD000002220213046FFF784FA052000F0C0F9F6
:100FE000012220213046FFF77CFA641CE4B2082C71
:100FF000E6D33846BDE8F041FFF7C2BF000C014020
:101000002DE9F04186B00024344800940194029404
:101010000394816941F020018161816901F020011F
:101020000491816941F010018161816901F0100131
:101030000491816941F004018161816901F0040139
:101040000491816941F0080181618069244F00F0B9
:1010500008004FF4E0560490002231463846FFF76E
:1010600040FADFF88080002238214046FFF739FA45
:10107000B81500901C480125CDE9010569463846A0
:10108000FFF73AF968028DE8310069463846FFF704
:1010900033F9CDE900650226CDE9024669463846B6
:1010A000FFF72AF904208DE8310069460F48FFF761
:1010B00023F93820CDE90005CDE9024669464046CE
:1010C000FFF71AF9002211461720FFF77BFA1720C5
:1010D000FFF76AFA06B0BDE8F08100000010024098
:1010E00000100140000C01400000211000140140DC
:1010F00010B586B00024184800940194029403941B
:10110000049414490594016041F61F41C0E901149B
:1011100041F28731C0E9031444618461FFF71AFD8D
:1011200008B1FFF7B8F84FF48050009069460A48BC
:10113000FFF7CAFD08B1FFF7AEF8049404A906480A
:101140000594FFF7D3FC002801D0FFF7A4F806B000
:1011500010BD0000002C01403800002010B586B002
:1011600000241648009401940294039404944FF0D0
:1011700080410594016041F61F41C0E9011413212B
:10118000C0E903148461FFF7E5FC08B1FFF783F8B9
:101190004FF48050009069460848FFF795FD08B16C
:1011A000FFF779F8049404A904480594FFF79EFC1E
:1011B000002801D0FFF76FF806B010BD80000020B6
:1011C000FEE7FEE770477047FFF796B930B58FB07E
:1011D00028216846FEF7F8FF14210AA8FEF7F4FF5D
:1011E00001210804CDE90010002402940225049195
:1011F000CDE907504FF4E01009906846FFF7D0FAA8
:1012000008B172B6FEE70F20CDE90A054FF4806001
:10121000CDE90C4002210AA80E94FFF705FA002838
:1012200001D072B6FEE70FB030BD70470148FFF73E
:10123000BABD0000380000200148FFF7B4BD00002F
:10124000380000200148FFF7AEBD00003800002044
:101250000148FFF7A8BD0000380000200148FFF753
:10126000A2BD000080000020F0B50268164B174CAC
:10127000174D4FF08047984205D0B84203D0A042A6
:1012800001D0A84203D122F070064A683243984246
:1012900005D0B84203D0A04201D0A84203D122F425
:1012A0004074CA6822434C6922F0800222430260E3
:1012B0008A68C2620A688262984201D10969016340
:1012C00001214161F0BD0000002C014000040040FC
:1012D0000008004010B5846842EA032224F47F44E9
:1012E0000A432243826010BD826822F070020A43E2
:1012F00042F007018160704710B5036A046A24F068
:1013000001040462846924F0F00444EA021423F026
:101310000A020A438461026210BD10B5036A046ABE
:1013200024F010040462846923F0A00324F47044C0
:1013300044EA023243EA01118261016210BDFEE714
:101340000907090E002804DB00F1E02080F80014F2
:10135000704700F00F0000F1E02080F8141D704786
:10136000A8214843800800BF401EFCD270470000FF
:101370002DE9F0472B4E4FF40074002521463046EE
:10138000FFF7AAF800284BD11420FEF787FF21466B
:101390003046FFF7A1F8002842D1012704E06D1C78
:1013A000ADB26420FEF77AFF21463046FFF794F88D
:1013B0000028F4D0DFF870800A2D03D9D8F8001087
:1013C000491E2BE00025B1461420FEF767FF214699
:1013D0004E464846FFF780F8B8B91420FEF75EFF86
:1013E0002146B1463046FFF777F870B9002604E091
:1013F000761CB6B26420FEF751FF21464846FFF73F
:101400006BF80028F4D00A2E0AD36D1CADB20A2D59
:10141000DAD3002F04D0D8F80010491CC8F8001007
:10142000BDE8F0870010014008000020FFF76CF8CD
:10143000FFF7CCFEFFF7E4FDFFF790FEFFF758FE45
:101440000C48FFF7FDFB00F089F84FF4FA70FEF747
:1014500025FF094C206828B1012808D10748FFF76B
:10146000EFFB04E00548FFF717FCFFF781FF00F0F2
:1014700007F8EFE78000002000000020380000207F
:101480000B4810B5406842F21071884201DA00F052
:1014900011F8074904200831FC220B5C03B90A54F7
:1014A000401C0828F9DBBDE810400A20FEF7F6BE14
:1014B00004000020F0B5284D0A240023A5F10802FD
:1014C000002815D026DD4FF0010100BF90FBF4F697
:1014D00004FB160690FBF4F0C1F1080701F10101CD
:1014E000AE5DC9B2D65508290AD80028EED10EE063
:1014F0002878D07100201354401CC0B20628FAD9B5
:10150000F0BD00BFC1F10800491C1354C9B208293D
:10151000F8D9F0BD414201200EE000BF91FBF4F686
:1015200004FB161691FBF4F1C0F10807401CAE5DF8
:10153000C0B2D655082801D80029EFD1C0F108045F
:101540000221115503E000BFC0F108015354401CB3
:10155000C0B20828F8D9F0BD1400002000200549C9
:10156000FC2200BFC0F10703401CCA540428F9DB69
:10157000704700000C00002001020203040506076A
:1015800008090A0B0C0D0E0F1010000000000000DF
:10159000000001020304060708090000BC1500084A
:1015A000000000203800000028010008F4150008A1
:1015B00038000020F006000044010008010000008F
:1015C000000000000000000000000000000000001B
:1015D000FC60DAF266B6BEE0FEF6EE3E9C7A9E8EC7
:1015E00001000000010000001000000000000000E9
:0415F0000024F400DF
:04000005080000ED02
:00000001FF
