:020000040800F2
:10000000C806002089010008DB0F0008DB0E00088D
:10001000D90F00088B0200082B1200080000000016
:10002000000000000000000000000000BF100008F9
:100030008D02000800000000BD100008C11000087B
:10004000A3010008A3010008A3010008A301000800
:10005000A3010008A3010008A3010008A3010008F0
:10006000A3010008A3010008A3010008A3010008E0
:10007000A3010008A3010008A3010008A3010008D0
:10008000A3010008A3010008A3010008A3010008C0
:10009000A3010008A3010008A3010008A3010008B0
:1000A00025110008491100083D1100083111000810
:1000B000A3010008A3010008A3010008A301000890
:1000C000A3010008A3010008A3010008A301000880
:1000D000A3010008A3010008A3010008A301000870
:1000E000A3010008A3010008A301000800F002F822
:1000F00000F03AF80AA090E8000C82448344AAF188
:100100000107DA4501D100F02FF8AFF2090EBAE885
:100110000F0013F0010F18BFFB1A43F0010318473B
:100120001814000038140000103A24BF78C878C1B1
:10013000FAD8520724BF30C830C144BF04680C60ED
:10014000704700000023002400250026103A28BF35
:1001500078C1FBD8520728BF30C148BF0B60704739
:100160001FB51FBD10B510BD00F058F81146FFF7C0
:10017000F7FF01F0C1F900F076F803B4FFF7F2FFE2
:1001800003BC00F07BF8000009488047094800479D
:10019000FEE7FEE7FEE7FEE7FEE7FEE7FEE7FEE737
:1001A000FEE7FEE704480549054A064B7047000094
:1001B00023110008ED000008C8000020C806002038
:1001C000C8020020C80200204FF0000200B513460C
:1001D00094469646203922BFA0E80C50A0E80C5067
:1001E000B1F12001BFF4F7AF090728BFA0E80C5018
:1001F00048BF0CC05DF804EB890028BF40F8042B11
:1002000008BF704748BF20F8022B11F0804F18BF7D
:1002100000F8012B7047704770477047754600F033
:1002200029F8AE4605006946534620F0070085468A
:1002300018B020B5FFF7B6FFBDE820404FF000062C
:100240004FF000074FF000084FF0000B21F00701BE
:10025000AC46ACE8C009ACE8C009ACE8C009ACE801
:10026000C0098D4670470446AFF300802046FFF773
:1002700084FF0000004870476400002001491820F6
:10028000ABBEFEE7260002007047FEE7704772B67D
:10029000FEE7000070B5044600F010F90546601C4A
:1002A00002D004480078044400F008F9401BA04242
:1002B000FAD370BD0C0000202DE9F84FDFF8B8919B
:1002C0000024A9F1040B23460F2709F1040AABF11E
:1002D000040EC9E00125A5402A40AA427DD1674EFF
:1002E000D1F804C0ACEB0608B44532D014DCBCF144
:1002F000030F3AD009DCBCF1000F2AD0BCF1010F8A
:100300001CD0BCF1020F31D11DE0BCF1110F17D090
:10031000BCF1120F2AD119E0B8F5881F19D006DCFC
:10032000B8F5803F15D0B8F5801F1FD111E0B8F5A2
:10033000001F0ED0B8F5041F18D10AE0CB6815E0F5
:10034000CB681B1D12E0CB6808330FE0CB680C3381
:100350000CE08B682BB1012B4FF0080303D04561F3
:1003600004E0042302E0056100E00023FF2A01D835
:10037000064601E000F104064FEA840501D9A5F123
:100380002005D6F8008007FA05FC28EA0C0803FAD5
:1003900005F548EA0508C6F800804D68ED0062D50D
:1003A000374DAE6946F00106AE61AD6924F0030633
:1003B00005F001050095334D06EB050CDCF80850FF
:1003C000A607360F07FA06F825EA0805DFF8B88011
:1003D000404503D14FF0000817E044E0DFF8AC805F
:1003E000404502D14FF001080FE0DFF8A4804045FE
:1003F00002D14FF0020808E0DFF89880404502D1B2
:100400004FF0030801E04FF0040808FA06F848EA44
:100410000508CCF808804D68D9F80060ED024D461B
:1004200001D5164300E096432E604D68DAF800606F
:10043000AD02554601D5164300E096432E604D6847
:10044000DBF80060AD035D4601D5164300E096433E
:100450002E604D68DEF80060ED03754601D5164349
:1004600000E096432E60641C0D682A46E5407FF448
:1004700031AFBDE8F88F0000080401400000111002
:10048000001002400000014000080140000C014043
:1004900000100140001401408068084000D0012095
:1004A0007047C26821EA02030A4043EA024101613F
:1004B00070470AB1016170470904FBE70148806891
:1004C000704700000C000020024881680278114447
:1004D000816070470C000020074810B5016841F0AA
:1004E00010010160032000F075F80F2000F006F8FD
:1004F00000F024F8002010BD0020024070B50D4D22
:1005000004464FF47A712878B1FBF0F00A49096883
:10051000B1FBF0F000F0BCFA48B9102C07D2002271
:100520002146501E00F036F800206C6070BD01209E
:1005300070BD00000C000020180000200C4808B519
:10054000816941F001018161816901F0010100913E
:10055000C16941F08051C161C06900F080500090D4
:100560000448416821F0E06141F00071416008BD3C
:100570000010024000000140002809DB00F01F02CB
:10058000012191404009800000F1E020C0F80011F5
:1005900070470000F0B40E4B1B680C46C3F30223F7
:1005A000C3F10705042D00D90425191D072901D21F
:1005B000002300E0DB1E012606FA05F1491E21405A
:1005C00099409E40761E16403143F0BC00F02EBE8E
:1005D0000CED00E0064900F0070208684FF6FF0343
:1005E000184040EA0220034A1043086070470000A8
:1005F0000CED00E00000FA052DE9F0470F4605007C
:1006000061D0434E306800F00700B84209D230682C
:1006100020F0070038433060306800F00700B8422F
:1006200051D128683B4C810712D5400703D560683B
:1006300040F4E06060602878000703D5606840F40B
:10064000605060606068A96820F0F0000843606056
:100650002878C00728D06868012810D021680228AF
:1006600010D0890700292EDA616821F003010143C7
:100670006160FFF723FF804641F288390DE0216871
:100680008903EFE78901EDE7FFF718FFA0EB080109
:10069000494502D90320BDE8F0876068696800F029
:1006A0000C00B0EB810FEFD1306800F00700B842CA
:1006B0000BD9306820F0070038433060306800F014
:1006C0000700B84201D00120E5E72878400705D5AA
:1006D0006068E96820F4E0600843606028780007FB
:1006E00006D56068296920F4605040EAC100606066
:1006F00000F018F86168084AC1F30311515CC84062
:100700000649086006480068FFF7F8FE0020C2E7C7
:1007100000200240001002402815000818000020A8
:10072000100000200E4A51680E4801F00C03042B03
:1007300011D0082B0FD10C48C1F38343C903C05C0F
:100740000AD55168084AC1F34041921E515C054ADE
:100750005043B0FBF1F07047044948437047000034
:100760000010024000127A001815000800093D0030
:100770002DE9F84F040070D02078C04DC00749D053
:100780006868C0F38100012807D06868C0F3810061
:10079000022809D16868C00306D52868800339D5C6
:1007A00060680028E7D035E06068B0F5803F0BD086
:1007B00010B1B0F5A02F11D0286820F48030286047
:1007C000286820F4802002E0286840F48030286007
:1007D000606890B1FFF772FE06460AE0286840F4B0
:1007E00080202860F0E700BFFFF768FE801B6428C8
:1007F00073D828688003F7D50CE0FFF75FFE064644
:1008000005E000BFFFF75AFE801B6428F0D8286877
:100810008003F7D420789A4E80074FF001094FF0FB
:10082000000839D5686810F00C0F07D06868C0F36D
:100830008100022809D16868C00306D428688007AF
:1008400014D52069012808D110E02069B0B1C6F89C
:100850000090FFF733FE074605E00AE1FFF72EFEA2
:10086000C01B0228C4D828688007F7D528686169AA
:1008700020F0F80040EAC10028600DE0C6F80080D2
:10088000FFF71CFE074604E0FFF718FEC01B022816
:1008900023D828688007F7D4207800072CD579481A
:1008A000A169D9B1C0F80090FFF708FE074604E03F
:1008B000FFF704FEC01B02280FD8686A8007F7D52F
:1008C00071484FF4FA510068B0FBF1F0009000BF9E
:1008D0000098411E0091FAD20EE080E0C0F800803E
:1008E000FFF7ECFD074604E0FFF7E8FDC01B022818
:1008F00075D8686A8007F7D42078400760D5E86922
:100900000027C00008D4E86940F08050E861E86939
:10091000012700F0805000905C480168C90513D49D
:100920000168834641F480710160FFF7C7FD82468C
:1009300006E000BFFFF7C2FDA0EB0A0064284ED816
:10094000DBF80000C005F5D5E06801280AD008B141
:10095000052813D0286A20F001002862286A20F0B8
:10096000040002E0286A40F001002862E06841F2D9
:10097000883B98B1FFF7A2FD82460BE0286A40F061
:1009800004002862EEE700BFFFF798FDA0EB0A0124
:1009900059455AD8286A8007F6D50CE0FFF78EFD36
:1009A000824605E0FFF78AFDA0EB0A0159454CD8C5
:1009B000286A8007F6D41FB1E86920F08050E8610A
:1009C000E06988B36968C1F38101022944D0022833
:1009D000C6F8608004D0FFF771FD044638E034E0CB
:1009E000FFF76CFD074604E0FFF768FDC01B022817
:1009F0002BD828688001F7D4206AB0F5803F05D154
:100A00006868A16820F4003008436860D4E90801F0
:100A10000843696821F4741108436860C6F860905F
:100A2000FFF74CFD044606E025E000BFFFF746FD5A
:100A3000001B022809D828688001F7D51BE000BFF9
:100A4000FFF73CFD001B022802D90320BDE8F88F08
:100A500028688001F4D40EE00128F7D06868226A83
:100A600000F48031914204D1616A00F47010884230
:100A700001D00120EAE70020E8E700000010024072
:100A800000004242800442421800002000700040F2
:100A900010B5401EB0F1807F01D3012010BD4FF092
:100AA000E02460610F21601700F0C0FB0020A0610E
:100AB00007202061002010BD7047704770B590F886
:100AC0003C20012A26D0012480F83C40022280F8F4
:100AD0003D2003685A689D6822F070060A68324318
:100AE0005A600D4B02689A4208D0B2F1804F05D08F
:100AF0000A4B9A4202D00A4B9A4204D1496825F027
:100B000080031943916080F83D40002180F83C103B
:100B1000084670BD022070BD002C0140000400405A
:100B20000008004010B5040003D094F83D0010B157
:100B300007E0012010BD002084F83C00204600F0B2
:100B40001FF8022084F83D00211D206800F002FB00
:100B5000012084F8460084F83E0084F83F0084F8C1
:100B6000400084F8410084F8420084F8430084F88F
:100B7000440084F8450084F83D00002010BD0000CA
:100B800008B50068174988422AD11748816941F49D
:100B9000006181618069002200F4006000901146CC
:100BA0001820FFF7F7FC1820FFF7E6FC002211469B
:100BB0001920FFF7EFFC1920FFF7DEFC0022114699
:100BC0001A20FFF7E7FC1A20FFF7D6FC0022114697
:100BD0001B20FFF7DFFCBDE808401B20FFF7CCBC63
:100BE00008BD0000002C01400010024090F83D10AC
:100BF000012901D001207047022180F83D100168D1
:100C0000CA6842F00102CA6000680B49884208D0F5
:100C1000B0F1804F05D00949884202D00849884286
:100C200004D1816801F00701062903D0016841F071
:100C30000101016000207047002C014000040040C9
:100C4000000800400168CA6822F00102CA60016819
:100C50000A6A41F211131A4207D10A6A9B101A421A
:100C600003D10A6822F001020A60012180F83D10D8
:100C70000020704770B5044690F83C00002501281C
:100C800017D0012684F83C60022084F83D002068DB
:100C9000826822F0770222F47F428260086850283E
:100CA00038D00DDC20284FD005DC90B3102811D1AE
:100CB0004AE0022070BD302846D040280AD13BE0EF
:100CC00060282FD070280DD0B0F5805F03D0B0F52C
:100CD000005F12D0012584F83D60002084F83C00BC
:100CE000284670BDCB68D1E90121206800F068FA80
:100CF0002068816841F0770109E0CB68D1E90121E2
:100D0000206800F05DFA2068816841F480418160CC
:100D1000E1E719E0CA684968206800F063FA5021E9
:100D2000206806E0CA684968206800F06CFA602113
:100D3000206800F04FFACEE7CA684968206800F0E2
:100D400051FA40212068F4E7226801461046F0E796
:100D5000704770B50446006801694FF00005C9434B
:100D6000890715D4C168C943890711D4E91E0161F7
:100D700001202077206880698007204602D0FFF795
:100D8000E7FF04E000F098F8204600F096F8257799
:100D900020680169C943490717D4C168C943490795
:100DA00013D46FF00401016102202077206880696C
:100DB00010F4407F204602D0FFF7CAFF04E000F0A5
:100DC0007BF8204600F079F8257720680169C9434F
:100DD000090716D4C168C943090712D46FF0080186
:100DE0000161042020772068C0698007204602D076
:100DF000FFF7AEFF04E000F05FF8204600F05DF87A
:100E0000257720680169C943C90617D4C168C94359
:100E1000C90613D46FF01001016108202077206803
:100E2000C06910F4407F204602D0FFF791FF04E034
:100E300000F042F8204600F040F82577206801696C
:100E4000C943C90708D1C168C943C90704D1891E6C
:100E50000161204600F032F820680169C9430906A3
:100E600009D4C168C943090605D46FF08001016146
:100E70002046FFF721FE20680169C943490609D4CD
:100E8000C168C943490605D46FF04001016120469D
:100E900000F022F820680169C94389060BD4C168B3
:100EA000C943890607D46FF0200101612046BDE8DF
:100EB0007040FFF702BE70BD70477047006804497C
:100EC000884203D1FF210348FFF7EBBA70470000C7
:100ED000002C0140001001407047FEE770B586B05D
:100EE00000241F480094019402940394816941F006
:100EF00020018161816901F020010491816941F043
:100F000010018161816901F010010491816941F052
:100F1000040181618069134E00F0040004900122F5
:100F2000FF213046FFF7C5FAFF200125CDE9000576
:100F30000220CDE9024069463046FFF7BDF94FF483
:100F400040708DE8310069463046FFF7B5F904205E
:100F50008DE8310069460448FFF7AEF906B070BD70
:100F600000100240001001400014014010B586B08E
:100F700000241848009401940294039404941449A2
:100F80000594016041F61F41C0E9011441F2873127
:100F9000C0E9031444618461FFF7C4FD08B1FFF7A1
:100FA00076F94FF48050009069460A48FFF762FED8
:100FB00008B1FFF76CF9049404A906480594FFF7FB
:100FC0007DFD002801D0FFF762F906B010BD0000DA
:100FD000002C01401C000020FEE7FEE770B5364CF7
:100FE000002201212046FFF764FA4FF4FA752846E3
:100FF000FFF750F9012211462046FFF75AFA002266
:1010000002212046FFF755FA2846FFF743F901224F
:1010100002212046FFF74DFA002204212046FFF767
:1010200048FA2846FFF736F9012204212046FFF747
:1010300040FA002208212046FFF73BFA2846FFF736
:1010400029F9012208212046FFF733FA0022102156
:101050002046FFF72EFA2846FFF71CF9012210213F
:101060002046FFF726FA002220212046FFF721FA2A
:101070002846FFF70FF9012220212046FFF719FA31
:10108000002240212046FFF714FA2846FFF702F914
:10109000012240212046FFF70CFA00228021204641
:1010A000FFF707FA2846FFF7F5F82046BDE870403D
:1010B00001228021FFF7FDB9001001407047704701
:1010C000FFF702BA30B58FB028216846FFF77CF8E9
:1010D00014210AA8FFF778F801210804CDE90010CF
:1010E0000024029402250491CDE907504FF4E0104A
:1010F00009906846FFF73CFB08B172B6FEE70F2087
:10110000CDE90A054FF48060CDE90C4002210AA820
:101110000E94FFF771FA002801D072B6FEE70FB007
:1011200030BD70470148FFF714BE00001C000020CE
:101130000148FFF70EBE00001C0000200148FFF729
:1011400008BE00001C0000200148FFF702BE00009E
:101150001C000020F0B50268164B174C174D4FF0DD
:101160008047984205D0B84203D0A04201D0A8429F
:1011700003D122F070064A683243984205D0B84243
:1011800003D0A04201D0A84203D122F44074CA681F
:1011900022434C6922F08002224302608A68C262C4
:1011A0000A688262984201D10969016301214161A3
:1011B000F0BD0000002C0140000400400008004089
:1011C00010B5846842EA032224F47F440A43224390
:1011D000826010BD826822F070020A4342F007016B
:1011E0008160704710B5036A046A24F00104046248
:1011F000846924F0F00444EA021423F00A020A434A
:101200008461026210BD10B5036A046A24F0100400
:101210000462846923F0A00324F4704444EA023297
:1012200043EA01118261016210BDFEE70907090E60
:10123000002804DB00F1E02080F80014704700F083
:101240000F0000F1E02080F8141D70472DE9F041F7
:10125000354C4FF48076002531462046FFF71CF9C7
:1012600000285ED11420FFF715F831462046FFF71D
:1012700013F9002855D1012704E06D1CADB264209C
:10128000FFF708F831462046FFF706F90028F4D0AA
:101290000A2D46D8B046002526461420FEF7FAFF50
:1012A000444641463046FFF7F7F870BB1420FEF77E
:1012B000F1FFA04621463046FFF7EEF828BB002498
:1012C00004E0641CA4B26420FEF7E4FF414630460B
:1012D000FFF7E2F80028F4D00A2C16D2134C20684D
:1012E000401C2060C00704D10022FF213046FFF7D8
:1012F000E0F80F4920680840012812D13046BDE8C7
:10130000F0410122FF21FFF7D4B86D1CADB20A2DC8
:10131000C3D3002F05D03046BDE8F0410121FFF7CF
:10132000C0B8BDE8F08100000010014000000020BE
:10133000010000802DE9F041334C4FF40076002588
:1013400031462046FFF7A8F800285AD11420FEF7AE
:10135000A1FF31462046FFF79FF8002851D1012711
:1013600004E06D1CADB26420FEF794FF31462046C8
:10137000FFF792F80028F4D00A2D42D8B046002595
:1013800026461420FEF786FF444641463046FFF7C6
:1013900083F850BB1420FEF77DFFA046214630465F
:1013A000FFF77AF808BB002404E0641CA4B26420B0
:1013B000FEF770FF41463046FFF76EF80028F4D084
:1013C0000A2C12D2114C6068401C6060C00702D128
:1013D0000F48FFF70BFC0F4960680840012810D147
:1013E000BDE8F0410A48FFF72DBC6D1CADB20A2DD7
:1013F000C7D3002F05D03046BDE8F0410221FFF7EA
:1014000050B8BDE8F081000000100140000000204D
:101410001C000020010000802DE9F041324C002525
:1014200004212046FFF738F800285AD11420FEF78F
:1014300031FF04212046FFF72FF8002851D1012663
:1014400004E06D1CADB26420FEF724FF04212046A9
:10145000FFF722F80028F4D0DFF890800A2D13D986
:10146000234CA068401CA060C00701D1FFF7B6FD67
:101470002049A0680840012833D14046BDE8F0412A
:101480000122FF21FFF715B8002527461420FEF79B
:1014900001FF04213846FEF7FFFFB0B91420FEF724
:1014A000F9FE04213846FEF7F7FF70B9002404E086
:1014B000641CA4B26420FEF7EDFE04213846FEF75A
:1014C000EBFF0028F4D00A2C0BD36D1CADB20A2D13
:1014D000DCD3002E05D04046BDE8F0410421FEF7E4
:1014E000E0BFBDE8F08100000014014000100140A1
:1014F0000000002001000080FEF7EEFFFFF7E2FD94
:10150000FFF7ECFCFFF732FDFFF7A0FEFFF712FF3D
:10151000FFF782FFF8E70102020304050607080946
:101520000A0B0C0D0E0F1010000000000000000050
:1015300001020304060708095815000800000020EE
:101540001C00000028010008741500081C00002081
:10155000AC0600004401000800000000000000008C
:10156000000000000100000010000000000000006A
:041570000024F4005F
:04000005080000ED02
:00000001FF
