:020000040800F2
:10000000B0040020010100084F220008D3140008AA
:100010004D2200086D01000825270008000000009F
:100020000000000000000000000000006324000841
:100030006F0100080000000061240008652400082A
:100040001B0100081B0100081B0100081B01000820
:100050001B0100081B0100081B0100081B01000810
:100060001B0100081B0100081B0100081B01000800
:100070001B0100081B0100081B0100081B010008F0
:100080001B0100081B0100081B0100081B010008E0
:100090001B0100081B0100081B0100081B010008D0
:1000A0001B0100081B0100081B0100081B010008C0
:1000B0001B0100081B0100081B0100081B010008B0
:1000C0001B010008E1140008D51400081B010008FA
:1000D0001B010008192700081B0100081B0100086C
:1000E0001B0100081B0100081B010008DFF80CD0F1
:1000F00000F02AF800480047F9270008B004002063
:100100000648804706480047FEE7FEE7FEE7FEE7B1
:10011000FEE7FEE7FEE7FEE7FEE7FEE7C72400088E
:10012000ED000008D2B201E000F8012B491EFBD21D
:1001300070470022F6E710B513460A4604461946F2
:10014000FFF7F0FF204610BD064C074D06E0E068C3
:1001500040F0010394E8070098471034AC42F6D30E
:10016000FFF7C8FF80300008A0300008FEE77047A6
:1001700072B6FEE710B590F821100022022905D0D2
:100180000421816380F82020012010BD01680B68E4
:1001900023F00E030B6001680B6823F001030B6072
:1001A00090F84030C46B012101FA03F3636080F8DA
:1001B000211080F82020104610BD000010B590F8E6
:1001C00021100024022903D00421816301243DE091
:1001D00001680A6822F00E020A6001680A6822F0CB
:1001E00001020A601A4A0168914201D1012121E00D
:1001F000174A1432914201D110211BE0144A2832CF
:10020000914201D1891515E0114A3C32914201D148
:1002100089140FE00E4A5032914202D14FF48031DE
:1002200008E00B4A6432914202D14FF4801101E0A0
:100230004FF08071064A083A5160012180F8211080
:10024000002180F82010416B01B18847204610BD85
:100250000800024090F821007047000070B5044685
:1002600000F0FEF80546601C02D004480078044403
:1002700000F0F6F8401BA042FAD370BD0000002049
:100280002DE9F84FDFF8B8910024A9F1040B2346BB
:100290000F2709F1040AABF1040EC9E00125A540BE
:1002A0002A40AA427DD1674ED1F804C0ACEB0608C3
:1002B000B44532D014DCBCF1030F3AD009DCBCF1F8
:1002C000000F2AD0BCF1010F1CD0BCF1020F31D1BC
:1002D0001DE0BCF1110F17D0BCF1120F2AD119E0AB
:1002E000B8F5881F19D006DCB8F5803F15D0B8F5F1
:1002F000801F1FD111E0B8F5001F0ED0B8F5041F04
:1003000018D10AE0CB6815E0CB681B1D12E0CB6862
:1003100008330FE0CB680C330CE08B682BB1012B5A
:100320004FF0080303D0456104E0042302E00561B7
:1003300000E00023FF2A01D8064601E000F1040690
:100340004FEA840501D9A5F12005D6F8008007FA07
:1003500005FC28EA0C0803FA05F548EA0508C6F882
:1003600000804D68ED0062D5374DAE6946F001065C
:10037000AE61AD6924F0030605F001050095334D2B
:1003800006EB050CDCF80850A607360F07FA06F84E
:1003900025EA0805DFF8B880404503D14FF0000892
:1003A00017E044E0DFF8AC80404502D14FF001088F
:1003B0000FE0DFF8A480404502D14FF0020808E0CA
:1003C000DFF89880404502D14FF0030801E04FF07C
:1003D000040808FA06F848EA0508CCF808804D68D1
:1003E000D9F80060ED024D4601D5164300E0964372
:1003F0002E604D68DAF80060AD02554601D516430F
:1004000000E096432E604D68DBF80060AD035D466A
:1004100001D5164300E096432E604D68DEF800607B
:10042000ED03754601D5164300E096432E60641C2B
:100430000D682A46E5407FF431AFBDE8F88F000033
:1004400008040140000011100010024000000140AB
:1004500000080140000C0140001001400014014060
:100460000148806870470000000000207047704716
:100470002DE9F041016804464A694E6890F83E0053
:100480000025D743FA050BD4F243D20508D46FF404
:10049000807201254A6121680A6842F400420A60BC
:1004A000B90508D4F143C90505D422686FF4007179
:1004B00045F002055161790525D4F143C90522D4DF
:1004C000638D94F83D10226B202808D13BB9212977
:1004D00010D029290ED0282901D1212A0AD022683A
:1004E0006FF48061516145F00405102806D0402862
:1004F00004D008E0204601F05BFC04E020680168BD
:1005000041F400710160380508D4F043C00505D4FA
:1005100021686FF4006045F008054861002D07D0A0
:10052000206C284320642046BDE8F04101F044B827
:10053000BDE8F0812DE9F047026800215368C66AE2
:1005400090F83E4090F83D50102C12D0402C10D026
:10055000046C002C7DD05469E443A6077AD4DE43B2
:10056000B60577D4036C03B19169BDE8F04701F09B
:10057000FBBB976951694FF42A0CC9435FEAC17804
:100580004FF02A4904D066452AD04E4528D010E0C5
:10059000DE43B6050DD4C16A614501D1012103E0F6
:1005A000C16A494501D10821C162BDE8F04701F0A7
:1005B000EDBA0E0716D4DE43B60513D4416CC9B2AA
:1005C0001161416B09B1896A29B9816B002907D092
:1005D000896A002904D00068416841F400614160E3
:1005E000BDE8F0878E0706D4DE43B60503D4BDE828
:1005F000F04701F01FBAFE43526876074FEA0252F5
:100600001DD4002AECDB0A0608D4DA43520505D4CF
:10061000490705D5BDE8F04701F0B0B94907DFD477
:10062000D9438905DCD4212D05D0402CD8D1BDE893
:10063000F04701F0F1BABDE8F04701F05DB9002ADA
:10064000CEDB4A060BD4DA43520508D4490708D555
:1006500001E00DE00EE0BDE8F04701F0D9B8490730
:10066000BED4D9438905BBD4BDE8F04701F067B8D3
:10067000916970E7E10606D4D943890503D4BDE842
:10068000F04701F0DDBB2821212D27D0292D25D0D1
:10069000650655D4DD436D0552D4640752D590F8F4
:1006A0003D30448D002C9BD01269446A2270426A0E
:1006B000521C4262428D521E4285428D002A8FD1C9
:1006C0002A2B8DD10268536823F480635360222261
:1006D000026380F83D1000F0E9F981E7250623D494
:1006E000DD436D0520D4640720D590F83D30448D5E
:1006F000002CF2D0446A24781461426A521C42628F
:10070000428D521E4285428D002AE6D1292BE4D12A
:100710000268536823F4806353602122026380F8E7
:100720003D1000F0C4F95BE76107D6D4D9438905D1
:10073000D3D4418D0029D0D0416A097811610AE0F3
:100740006107CAD4D9438905C7D4418D0029C4D0D3
:100750001169426A1170416A491C4162418D491E0A
:1007600041853DE77047000070B5040025D094F83E
:100770003D00002520B984F83C50204600F056F991
:10078000242084F83D002068016821F00101016007
:100790002068016841F4004101602068016821F48B
:1007A0000041016000F0B2FA4D4A6168914201D8FF
:1007B0004C4900E04C49884201D2012070BD4B49B0
:1007C0002368B0FBF1F15E6826F03F060E435E60E1
:1007D0006368934206D94FF4967359434FF47A7382
:1007E000B1FBF3F12368491C1E6A26F03F06314332
:1007F00019626168914210D84900401EB0FBF1F2C5
:10080000521CC2F30B02042A01D2042022E0B0FBE6
:10081000F1F0401CC0F30B001CE0A268F2B301EB46
:10082000C10303EB0116431EB3FBF6F35B1C43F459
:1008300080431B0549D092B301EBC10202EB0111C9
:10084000401EB0FBF1F0401CC0F30B0040F48040B0
:1008500040F400402168CA694CF6FF739A43104384
:10086000C861D4E9071001432068026822F0C00281
:1008700011430160D4E9030101432068826848F212
:10088000FF339A4311438160D4E90501084321688D
:10089000CA6822F0FF021043C86001E00EE016E0D3
:1008A0002068016841F0010101602564202084F87E
:1008B0003D00256384F83E50002070BD01EB4106E9
:1008C000431EB3FBF6F35B1CB3E70120C2E701EB69
:1008D0004101401EB0FBF1F0401CC0F30B00B7E734
:1008E000A086010080841E0000093D0040420F00E8
:1008F0007047704770477047704700002DE9FF4F01
:1009000083B09A46DDE9119793460446DDF84080AE
:10091000FFF7A6FD054694F83D0020287FD1192356
:10092000012240492046009501F064FB002876D161
:1009300094F83C00012872D0012084F83C00206823
:100940000168C90703D1016841F001010160206815
:10095000016821F400610160212084F83D004020FD
:1009600084F83E0000262664C4F82480A4F82A9067
:10097000608D20852C48E062CDE9007553465A46CB
:100980002046049901F09CF970B930E02A463946B6
:10099000204601F0D5FB58B1206C042804D1206812
:1009A000016841F400710160012007B0BDE8F08FDB
:1009B000606A216800780861606A401C6062218D6D
:1009C000491E89B22185628D521E62852268536953
:1009D000DB435B070BD469B100781061606A401C8F
:1009E0006062208D401E2085608D401E6085208DB8
:1009F0000028CBD12A463946204601F0CFFA0028FC
:100A0000CAD154F83D0B016841F400710160202007
:100A100004F81E09E67766770020C6E7FFE70220A4
:100A2000C3E70000020010000000FFFF10B586B011
:100A300000210091019102910391006818498842B8
:100A40002BD1184CA06940F00800A061A06969464C
:100A500000F0080004904FF44060009012200190D4
:100A6000032003901048FFF70BFCE06940F480007E
:100A7000E061E069002200F480000490114621202A
:100A800000F07CF8212000F06BF8002211462220B3
:100A900000F074F8222000F063F806B010BD0000EA
:100AA0000058004000100240000C014070477047A1
:100AB000024881680278114481607047000000207C
:100AC000074810B5016841F010010160032000F0F3
:100AD00075F80F2000F006F800F024F8002010BD93
:100AE0000020024070B50D4D04464FF47A7128780D
:100AF000B1FBF0F00A490968B1FBF0F000F0DCFA54
:100B000048B9102C07D200222146501E00F036F8BA
:100B100000206C6070BD012070BD0000000000204E
:100B20000C0000200C4808B5816941F00101816189
:100B3000816901F001010091C16941F08051C161F9
:100B4000C06900F0805000900448416821F0E061E5
:100B500041F00071416008BD0010024000000140FA
:100B6000002809DB00F01F020121914040098000AC
:100B700000F1E020C0F8001170470000F0B40E4B07
:100B80001B680C46C3F30223C3F10705042D00D9EB
:100B90000425191D072901D2002300E0DB1E0126D0
:100BA00006FA05F1491E214099409E40761E1640E6
:100BB0003143F0BC01F0E4BD0CED00E0064900F06B
:100BC000070208684FF6FF03184040EA0220034A74
:100BD00010430860704700000CED00E00000FA05CB
:100BE0002DE9F0470F46050061D0434E306800F014
:100BF0000700B84209D2306820F00700384330605F
:100C0000306800F00700B84251D128683B4C81079A
:100C100012D5400703D5606840F4E0606060287832
:100C2000000703D5606840F4605060606068A968A0
:100C300020F0F000084360602878C00728D068687A
:100C4000012810D02168022810D0890700292EDA47
:100C5000616821F0030101436160FFF701FC8046F8
:100C600041F288390DE021688903EFE78901EDE75A
:100C7000FFF7F6FBA0EB0801494502D90320BDE8C8
:100C8000F0876068696800F00C00B0EB810FEFD16D
:100C9000306800F00700B8420BD9306820F0070038
:100CA00038433060306800F00700B84201D00120BE
:100CB000E5E72878400705D56068E96820F4E0603A
:100CC000084360602878000706D56068296920F429
:100CD000605040EAC100606000F038F86168084A7E
:100CE000C1F30311515CC84006490860064800681A
:100CF000FFF7F8FE0020C2E700200240001002408B
:100D0000663000080C00002004000020044805495B
:100D100000684968044AC1F30221515CC840704729
:100D20000C000020001002407630000804480549FD
:100D300000684968044AC1F3C221515CC840704749
:100D40000C00002000100240763000080E4A516866
:100D50000E4801F00C03042B11D0082B0FD10C48C6
:100D6000C1F38343C903C05C0AD55168084AC1F383
:100D70004041921E515C054A5043B0FBF1F0704770
:100D800004494843704700000010024000127A00F6
:100D90005630000800093D002DE9F84F040070D0DE
:100DA0002078C04DC00749D06868C0F38100012891
:100DB00007D06868C0F38100022809D16868C003C1
:100DC00006D52868800339D560680028E7D035E06B
:100DD0006068B0F5803F0BD010B1B0F5A02F11D0F6
:100DE000286820F480302860286820F4802002E001
:100DF000286840F480302860606890B1FFF730FBCD
:100E000006460AE0286840F480202860F0E700BF2A
:100E1000FFF726FB801B642873D828688003F7D56A
:100E20000CE0FFF71DFB064605E000BFFFF718FBCF
:100E3000801B6428F0D828688003F7D420789A4E65
:100E400080074FF001094FF0000839D5686810F0AD
:100E50000C0F07D06868C0F38100022809D16868C8
:100E6000C00306D42868800714D52069012808D15A
:100E700010E02069B0B1C6F80090FFF7F1FA07461C
:100E800005E00AE1FFF7ECFAC01B0228C4D8286885
:100E90008007F7D52868616920F0F80040EAC100B2
:100EA00028600DE0C6F80080FFF7DAFA074604E094
:100EB000FFF7D6FAC01B022823D828688007F7D48A
:100EC000207800072CD57948A169D9B1C0F80090E5
:100ED000FFF7C6FA074604E0FFF7C2FAC01B022874
:100EE0000FD8686A8007F7D571484FF4FA51006847
:100EF000B0FBF1F0009000BF0098411E0091FAD2C3
:100F00000EE080E0C0F80080FFF7AAFA074604E090
:100F1000FFF7A6FAC01B022875D8686A8007F7D4C5
:100F20002078400760D5E8690027C00008D4E86948
:100F300040F08050E861E869012700F0805000909F
:100F40005C480168C90513D40168834641F4807187
:100F50000160FFF785FA824606E000BFFFF780FADE
:100F6000A0EB0A0064284ED8DBF80000C005F5D5D8
:100F7000E06801280AD008B1052813D0286A20F0BB
:100F800001002862286A20F0040002E0286A40F08C
:100F900001002862E06841F2883B98B1FFF760FAEF
:100FA00082460BE0286A40F004002862EEE700BFAA
:100FB000FFF756FAA0EB0A0159455AD8286A80076C
:100FC000F6D50CE0FFF74CFA824605E0FFF748FA49
:100FD000A0EB0A0159454CD8286A8007F6D41FB106
:100FE000E86920F08050E861E06988B36968C1F37E
:100FF0008101022944D00228C6F8608004D0FFF79E
:101000002FFA044638E034E0FFF72AFA074604E0F6
:10101000FFF726FAC01B02282BD828688001F7D4D6
:10102000206AB0F5803F05D16868A16820F40030DF
:1010300008436860D4E908010843696821F4741121
:1010400008436860C6F86090FFF70AFA044606E0B5
:1010500025E000BFFFF704FA001B022809D8286822
:101060008001F7D51BE000BFFFF7FAF9001B02284B
:1010700002D90320BDE8F88F28688001F4D40EE07F
:101080000128F7D06868226A00F48031914204D1C7
:10109000616A00F47010884201D00120EAE7002064
:1010A000E8E7000000100240000042428004424293
:1010B0000C0000200070004010B5401EB0F1807F91
:1010C00001D3012010BD4FF0E02460610F216017B3
:1010D00001F056FB0020A06107202061002010BD18
:1010E00070477047F8B5016804460868CA684B69DC
:1010F00010F00F0F4FF000055AD003F0010602F474
:101100009077374365D0C10705D0D10503D5616C11
:1011100041F001016164410705D5D90703D0616C35
:1011200041F002016164810705D5D90703D0616CE4
:1011300041F004016164010707D502F02001314349
:1011400003D0616C41F008016164616C00293BD0FF
:10115000800604D5900602D5204601F0E4F9206807
:101160004069616CC0F3801001F008010143204622
:101170002BD001F0B1F920684069400621D52068E4
:10118000143050E8001F21F0400140E80012002A0E
:10119000F5D1E06BA8B16D494163E06BFFF70EF844
:1011A000002811D0E06B416B01B0BDE8F04008476A
:1011B00083060ED593060CD52046BDE8F84001F015
:1011C000B2B92046FFF78DFFF8BDFFF78AFF6564CF
:1011D000F8BD266B2023012E7CD1C6067AD5D60613
:1011E00078D508684868009048694FF002064006C4
:1011F00040D5E16B086840680004000CE8D0A28D7F
:101200008242E5D9E085886920282DD020680C30FD
:1012100050E8001F21F4807140E80012002AF5D147
:101220002168143151E8000F20F0010041E800026C
:10123000002AF5D12068143050E8001F21F0400149
:1012400040E80012002AF5D184F842302563206876
:101250000C3050E8001F21F0100140E80012002A75
:10126000F5D1E06BFEF786FF6663A08DE18D401A35
:1012700081B22AE0A08DE18D401A81B2E08D002874
:10128000A6D00029A4D022680C3252E8000F20F426
:10129000907042E80007002FF5D12068143050E824
:1012A000002F22F0010240E80027002FF5D184F83A
:1012B0004230256320680C3050E8002F22F01002E5
:1012C00040E80023002BF5D166632046FFF708FFB6
:1012D000F8BDFFE705062BD5150629D594F8410082
:1012E0002128F5D1A068B0F5805F01D12069B0B1A7
:1012F000206A411C2162216800784860E08C401E11
:101300000004000CE084E3D12068C16821F0800172
:10131000C1602068C16841F04001C160D8E7206A1F
:101320000088C0F308004860206A801C2062E5E75E
:101330004006CDD55006CBD5CA68204622F04002E3
:10134000CA6084F8413000F0C3F8C1E7C92400083E
:1013500070B5040004D094F84100002510B106E0F7
:10136000012070BD84F84050204600F023F824206E
:1013700084F841002068C16821F40051C160204612
:1013800001F032F92068016921F49041016120687F
:10139000416921F02A0141612068C16841F400518E
:1013A000C1606564202084F8410084F842006563D0
:1013B000002070BD30B585B00024009401940294E3
:1013C00003940068184988422CD11848816941F477
:1013D00080418161816901F480410491816941F01A
:1013E000040181618069124D00F0040004904FF403
:1013F0000070009002200190032003906946284667
:10140000FEF73EFF2815CDE9000469462846029400
:10141000FEF736FF002211462520FFF7AFFB2520FF
:10142000FFF79EFB05B030BD0038014000100240C0
:101430000008014070472DE9F843044690F8410048
:101440001F4616460D46202802D00220BDE8F8832C
:101450007DB176B100206064212084F84100FEF760
:10146000FFFFA6848046E684A068B0F5805F02D0C6
:1014700003E00120EAE7206910B12E4600250EE0C6
:1014800000260CE08021204601F00AF9A0B9AEB197
:1014900016F8010B21684860E08C401EE084E08C67
:1014A00043464FF0000200970028EBD14FF0400177
:1014B000204601F0F5F830B10320C7E735F8020BFC
:1014C000C0F30800E6E7202084F841000020BDE7D3
:1014D0007047FEE70148FEF7CBBF00001400002074
:1014E0000148FFF727B800001400002038B5406A13
:1014F000002190F83D202B4B46F2A8141B68B3FB4B
:10150000F4F3C3EBC30303EB830300933BB15B1E14
:10151000009303681B689B0505D5009BF6E7036CE9
:1015200043F020030364436B03B19962836B03B1FF
:10153000996203681C6824F480641C604185436BD5
:1015400003B15963836B03B1596303681C6824F0CA
:1015500001041C6090F83D402023602C0BD028240F
:1015600034EA02020FD080F83D3080F83E1000BF10
:10157000FFF7F8F838BD80F83D3080F83E10016480
:10158000FEF774FF38BD0268136843F0010313606F
:101590000268136843F480631360016380F83D4080
:1015A000E6E700000C00002000684169C943090615
:1015B00001D400210161704770B5044690F83D00E8
:1015C00094F83E10102901D0402906D1222804D1D8
:1015D00021680A6822F400620A60282131EA0002C8
:1015E0004FF000054FF0200626D021684968090514
:1015F00005D4602803D084F83D6084F83E5025630C
:1016000020684168090537D5416821F400614160CF
:10161000606B90F821203C49012A11D04163606B36
:10162000FEF7CCFD38B32068016821F001010160AC
:1016300084F83D60606B1CE0256384F83D10DFE7B3
:10164000A06B4163A06BFEF7B9FDA0B120684169B2
:10165000C943490605D40069616A0870606A401C84
:1016600060622068016821F00101016084F83D603A
:10167000A06B416B884710E094F83D10602910D0B2
:101680004169C943490605D40069616A0870606A06
:10169000401C60622046FFF765F8206CC1071CD132
:1016A00015E084F83D6025644169C943490605D4C5
:1016B0000069616A0870606A401C606220680168A5
:1016C00021F0010101602046FEF7D0FEE5E7810729
:1016D00003D4410701D4000704D52068416821F4F0
:1016E000E061416094F83D00216C49070BD5282842
:1016F00009D10648E062256384F83D6084F83E50D5
:101700002046FFF7F5F870BDED1400080000FFFF5C
:1017100001684A69D24352050FD46FF480624A616E
:10172000002140F8301F202242738173026942F089
:10173000040202610173012070470020704710B558
:10174000C26A438D0168042B06D0438D032B08D059
:10175000438D022B1DD012E04A6822F480624A6059
:101760000CE04B6823F480634B60042A06D0022A05
:1017700004D001680A6822F480620A60016809697D
:10178000426A1170416A491C4162418D491E41857E
:1017900010BD012A30D0102A2ED0042A30D0022ABF
:1017A0002ED00A6842F400720A6001680969426A30
:1017B0001170416A491C4162428D521E4285026885
:1017C00012690A70416A491C4162418D491E418576
:1017D00001684A6822F440724A60202180F83D1076
:1017E00090F83E200021402A80F83E100CD01221B3
:1017F0000163FFF77EF810BD0A6822F48062D3E728
:101800000A6842F48062CFE70163FFF774F810BD05
:1018100038B590F83D1022290FD1418D03290DD9FB
:1018200001680969426A1170416A491C4162418D2F
:10183000491E4185418D032906D038BDC26A022A5E
:1018400002D0012906D029B10068416821F48061E5
:10185000416038BD274946F2A81300220968B1FB50
:10186000F3F101EB8101009101682023009C641ECB
:10187000009422D00C68A405F8D40C6824F4806489
:101880000C6001684C6824F4E0644C6001680969EC
:10189000446A2170416A491C4162418D491E41855B
:1018A00080F83D3090F83E1080F83E2040291DD051
:1018B00012210163FFF71DF838BD046C44F02004C9
:1018C00004644C6824F4E0644C6001680969446A6B
:1018D0002170416A491C4162418D491E418580F851
:1018E0003D3080F83E20FEF73DFF38BD0263FFF734
:1018F00002F838BD0C00002010B5C26A90F83D1007
:1019000021290BD1418D51B1416A026809781161D9
:10191000416A491C4162418D491E418510BD202309
:101920000021082A13D0202A11D012F5803F0ED0B2
:101930000268546824F4E06454601122026380F861
:101940003E1080F83D3000BFFEF7D4FF10BD0268A6
:10195000546824F4E06454600268146844F4007429
:101960001460016380F83D3090F83E2080F83E100E
:10197000402AE9D1FEF7C0FF10BD000010B590F875
:101980003D1090F83E30C26A048DB4B1212903D0D5
:10199000402B11D122290FD1418DE1B390F83E1097
:1019A000402942D0416A026809781161416A491CA4
:1019B0004162418D491E418510BD2129E8D1202376
:1019C0000021082A13D0202A11D012F5803F0ED012
:1019D0000268546824F4E06454601122026380F8C1
:1019E0003E1080F83D3000BFFEF784FF10BD026856
:1019F000546824F4E06454600268146844F4007489
:101A00001460016380F83D3090F83E2080F83E106D
:101A1000402AE9D100E002E0FEF76EFF10BD006849
:101A2000416821F48061416010BDBDE8104000F0C4
:101A3000F3B8000078B590F83E50C26A046B90F895
:101A40003D6000230168222E73D1066D0EB9402D32
:101A50006FD0056D1DB90569B5F5404F1BD0458D9B
:101A600095B3468D484D012E20D0448D022C4DD08B
:101A70000C6844F480640C6001684C68240579D5D6
:101A8000AA4273D0012A71D0082A6FD0102A6DD0D3
:101A9000202A6BD06EE04A698A6900920A6842F493
:101AA00080720A60016D491C016578BDAA4214D19B
:101AB0000A6822F480620A6001684A68120504D547
:101AC0000A6822F4806217E0FFE74A698A69009297
:101AD0000A6842F400720A6050E0082A10D0202AF6
:101AE0000ED0122C0AD0042A03D0022A01D0102AC8
:101AF000E6D10A6842F480620A603BE0012ADFD046
:101B00000A6822F480620A600168DEE7042A11D0C4
:101B1000022A0FD0102A0DD00C6844F400640C6027
:101B200001684C698C6900940C6824F480640C6032
:101B300008E025E00C6844F480640C6001684C699E
:101B40008969009101684C68240517D5AA4207D01D
:101B5000012A05D0082A03D0102A01D0202A0DD14D
:101B60004A6842F480524A6008E0FFE74A6842F45B
:101B700080524A6001684A6989690091036578BDAD
:101B800048698869009078BD0000FFFF90F83E101A
:101B9000402910D00169B1F5804F19D0016DA9B36A
:101BA000016D012910D1416C5FF0F10201F4407127
:101BB00042EAD11106E0016D0029416C05D0C9B29D
:101BC00041F0010100680161704701F0FE01F9E791
:101BD00090F83D102129416C09D0C9B241F00101B2
:101BE00002681161416B29B1896A49B902E001F0CB
:101BF000FE01F5E7816B0029E6D0896A0029E3D070
:101C00000068416841F4006141607047FFE7416C42
:101C1000F02201F44071CBE710B590F83D10026D51
:101C20004AB1026D012A14D0026D022A16D0BDE815
:101C30001040FFF7B9BCC16C0129816C02D0C1F31F
:101C4000072108E00268C9B21161016D891C0165B4
:101C500010BD816CC9B20268116123E022291CD039
:101C6000428D0AB1212920D0428D002AF0D12129AC
:101C7000EED101684A6822F4E0624A6001680A68AD
:101C800042F400720A6000210163202280F83D20A6
:101C900080F83E10FEF730FE10BD01680A6842F47D
:101CA00080720A60016D491CD1E7416A02680978B7
:101CB0001161416A491C4162418D491E418510BD37
:101CC0002DE9F843044600680D46DDE908970168F0
:101CD0009846164641F4807101604B4600224FF051
:101CE00001112046009700F085F948B1206800688E
:101CF000C00502D54FF4007020640320BDE8F883CE
:101D0000216805F0FE0008613B464A461549204619
:101D100000F0B8F988B920684169806900903A46B6
:101D20004946204600F00CFA48B1206C042804D142
:101D30002068016841F4007101600120DEE7F5B21E
:101D4000B8F1010F09D02168300A08613A464946C6
:101D5000204600F0F5F90028E7D120680561002051
:101D6000CCE700000200010038B50C4690F83D2099
:101D700000212825954302680B4605D051699169D9
:101D8000009180F83C3038BD556825F48065556079
:101D9000E243540700D50121120601D5828900E0F3
:101DA000028B80F83C3092B2FEF761FB38BD000038
:101DB0002DE9F04190F83D300446C26A002120260A
:101DC0001E4F00686FF48065082A01D0202A01D1D7
:101DD000282B04D0212B17D04561BDE8F081E762A4
:101DE000426822F4E062426020684561206802682F
:101DF00022F480620260216384F83D6084F83E1022
:101E00002046FEF775FDE8E7E7622122226384F8A9
:101E10003D6084F83E10416821F4E0614160206833
:101E200045612068016821F4806101602046FFF768
:101E3000BBFB2046FEF73BFECFE700000000FFFFA4
:101E4000F8B590F83D6004460068416821F4E0610F
:101E500041602068002541690091016841F001015D
:101E600001602068016821F4806101602068416898
:101E7000090520D5474F222E48D02A2E46D0616B27
:101E8000096849686185618D19B1216C41F00401CF
:101E90002164416821F400614160606BFEF7DAF96A
:101EA000012808D0606B4763606BFEF787F910B1BB
:101EB000606B416B8847608D08B320684169C943F6
:101EC000490708D40069616A0870606A401C606252
:101ED000608D401E608520684169C943490608D469
:101EE0000069616A0870606A401C6062608D401E13
:101EF0006085608D18B1206C40F004002064206C77
:101F000000B32046BDE8F840FFF756BBA16B096857
:101F100049686185618D19B1216C41F0040121642A
:101F2000416821F400614160A06BFEF793F901283C
:101F3000C1D0A06B4763A06BFEF740F90028BAD070
:101F4000A06BB6E72A2E06D12563282084F83D0031
:101F50002046FEF7ABFD94F83D10202028290DD037
:101F6000216B222901D0222E07D1256384F83D0060
:101F700084F83E502046FEF799FDF8BD0649E1621F
:101F8000256384F83D0084F83E502046FEF7B0FCFF
:101F9000F8BD0000ED1400080000FFFF70B5164604
:101FA0000D4604461EE02046FFF7B2FB08B10120B3
:101FB00070BD681C16D0FEF753FA801BA84200D8EB
:101FC00085B920684069C04340070BD5002044F81C
:101FD000300F20216173A073216941F0200121613C
:101FE0002073E4E720684069C0434007DBD4002049
:101FF00070BD00002DE9F047984617460D4604468F
:10200000C1F30746DDF820902AE000BFB8F1FF3F9A
:1020100026D0FEF725FAA0EB0901414502D8B8F118
:10202000000F1DD12068012E16D0806925EA00001E
:102030000004000C12D00020B84211D1002044F856
:10204000300F20216173A073216941F020012161CB
:1020500020730120BDE8F0874069E7E70120EBE746
:102060002068012E0AD0806925EA00000004000CD7
:1020700006D00020B842C9D00020EBE74069F3E762
:102080000120F7E72DE9F047984616460D4604462D
:102090004FF000094FF0200AC1F3074723E0206802
:1020A0004069C043400515D42068016841F40071BF
:1020B000016021686FF480604861C4F8309084F852
:1020C0003DA084F83E90216C41F00401216484F825
:1020D0003C9021E0701C06D0FEF7C2F9A0EB08008E
:1020E000B04203D816B1012F1FD021E02068012F84
:1020F00015D0806925EA00000004000C18D000BF4C
:1021000044F8309F84F80DA084F80E90216941F0C6
:102110002001216184F80C900120BDE8F08740691E
:1021200025EA00000004000CEAD12068406901E0C3
:102130002068806925EA00000004000CAFD1ECE7BC
:1021400070B516460D4604461EE02046FFF7E0FA3D
:1021500008B1012070BD681C16D0FEF781F9801B04
:10216000A84200D885B920684069C04300060BD555
:10217000002044F8300F20216173A073216941F0E1
:10218000200121612073E4E720684069C043000614
:10219000DBD4002070BD00000D4808B5816941F016
:1021A00020018161816901F020010091816941F084
:1021B00008018161816901F008010091816941F0A4
:1021C00004018161806900F00400009008BD0000F6
:1021D000001002400D4810B50B4901600C494160E8
:1021E00000214FF480428160C0E9031241618161A6
:1021F000C1610162FEF7B8FA002803D0BDE81040C3
:10220000FDF7B6BF10BD00000058004014000020CC
:10221000A08601000C4810B50A4901604FF4E13175
:102220004160002181600C22C160C0E9041281611B
:10223000C161FFF78DF8002803D0BDE81040FDF71D
:1022400097BF10BD0038014068000020FEE7FEE7A0
:1022500010B5002000F002F8012010BD70B5064650
:102260005FF0000404F1B000C0B200F05DFA00209D
:1022700000F05AFA102000F057FA0025304600F01E
:1022800065FA6D1CEDB2802DF8D3641CE4B2082C05
:10229000E8D370BD10B54FF4FA70FDF7DFFFAE2044
:1022A00000F042FA202000F03FFA102000F03CFA43
:1022B000B02000F039FA002000F036FA102000F0CB
:1022C00033FAC82000F030FA402000F02DFA8120C7
:1022D00000F02AFAFF2000F027FAA12000F024FAEB
:1022E000A62000F021FAA82000F01EFA3F2000F0FE
:1022F0001BFAA42000F018FAD32000F015FA0020F1
:1023000000F012FAD52000F00FFAF02000F00CFADD
:10231000D92000F009FA222000F006FADA2000F0B5
:1023200003FA122000F000FADB2000F0FDF9202073
:1023300000F0FAF98D2000F0F7F9142000F0F4F91C
:10234000BDE81040AF2000F0EFB910B58D2000F0CF
:10235000EBF9142000F0E8F9BDE81040AF2000F0E0
:10236000E3B910B50446B031C8B200F0DDF9102071
:1023700040EA141000F0D8F904F00F00BDE8104056
:1023800040F0010000F0D0B92DE9F047002591465A
:102390008A460446012B22D0DFF8BC80022B24D1D0
:1023A00055E02038C7B27E2C04D90AF10100002480
:1023B00000F0FF0A51462046FFF7D3FF07EB470026
:1023C000002608EB4007B85D00F0C0F9761CF6B2B5
:1023D000062EF8D3A41D6D1CE4B2EDB201E0DFF8C7
:1023E0007C8019F805000028DBD1BDE8F087203893
:1023F000C7B2782C04D90AF10100002400F0FF0ACA
:1024000051462046FFF7ADFF5FF0000606EB0711CF
:1024100018F8010000F09AF9761CF6B2082EF5D3F0
:102420000AF10100C1B22046FFF79BFF5FF00006F2
:1024300006EB071101EB0800007A00F087F9761C23
:10244000F6B2082EF4D308346D1CE4B2EDB219F8DC
:1024500005000028CBD1C8E7642A00083C28000802
:1024600070477047FEF724BB30B58FB0282168460F
:10247000FDF75FFE14210AA8FDF75BFE01210804A9
:10248000CDE900100024029402250491CDE9075003
:102490004FF4E01009906846FEF77EFC08B172B672
:1024A000FEE70F20CDE90A054FF48060CDE90C402E
:1024B00002210AA80E94FEF793FB002801D072B601
:1024C000FEE70FB030BD704710B5406A0021C185EE
:1024D000C184FEF706FE10BD01680C3151E8002FE3
:1024E00022F4907241E80023002BF5D101681431E9
:1024F00051E8002F22F0010241E80023002BF5D122
:10250000016B012909D101680C3151E8002F22F03B
:10251000100241E80023002BF5D1202180F8421061
:1025200000210163704708B590F84210222901D0BC
:10253000022008BD82684FF480539A4201D101699C
:1025400021B1816A9A421BD04AB10AE00268816ACD
:102550005268C2F308020A80816A891C08E0026995
:1025600072B10268526802F07F020A70816A491CE7
:102570008162C18D491E0904090CC18503D01BE08D
:1025800002685268F1E70168CA6822F02002CA6056
:102590000168CA6822F48072CA6001684A6922F040
:1025A00001024A61202180F8421000214163026B40
:1025B000012A03D0FEF73EFF002008BD0163016839
:1025C0000C3151E8002F22F0100241E80023002BCB
:1025D000F5D101680A68D20602D50A6849680091F7
:1025E000818DFEF77DFDE7E770B50446006801695F
:1025F000E26821F44051114301612169A068084358
:10260000616908432168CA6841F20C639A43024336
:10261000CA6020684169A26921F440711143416197
:102620001E492068884202D1FEF780FB01E0FEF7D8
:102630006DFB00EBC00101EB0012606864218000BB
:10264000B2FBF0F3B3FBF1F36FF018067343B2FB88
:10265000F0F5B2FBF0F605EB8305322303EB05152D
:10266000B5FBF1F5B6FBF1F605F0F00505EB061547
:10267000B2FBF0F6B2FBF0F0B0FBF1F06FF0180235
:10268000504306EB800003EB0010B0FBF1F0216833
:1026900000F00F002844886070BD00000038014041
:1026A0002DE9F041984617460E460446069D27E060
:1026B000681C25D02DB1FDF7D3FEA0EB0800A84281
:1026C0001ED920680C3050E8001F21F4D07140E87A
:1026D0000012002AF5D12068143050E8001F21F0C4
:1026E000010140E80012002AF5D1202084F84100C1
:1026F00084F84200002084F840000320BDE8F08107
:102700002068006836EA000004D00020B842CFD02C
:102710000020F3E70120F9E70148FEF7E3BC0000E1
:1027200068000020FEE7000001B584B001216422AA
:1027300004A88DE807000B46002278210248FEF726
:10274000DDF805B000BD00001400002001B584B024
:102750000121642204A88DE807000B46402278215D
:102760000248FEF7CBF805B000BD000014000020C1
:10277000014A024900F023B8E127000810000020B8
:102780000907090E002804DB00F1E02080F800149E
:10279000704700F00F0000F1E02080F8141D704732
:1027A00002E008C8121F08C1002AFAD1704770471A
:1027B000002001E001C1121F002AFBD170472DE962
:1027C000F04116460F460446002503E03946B0475F
:1027D000641C6D1C20780028F8D12846BDE8F081E3
:1027E00013B54FF0FF33012269460248FEF723FE7E
:1027F00000981CBD68000020FEF762F9FFF734FE68
:10280000FFF7CAFCFFF7E6FCFFF704FD07A0FFF7A0
:10281000AFFFFFF73FFDFFF71BFD0021022306A2DC
:102820000846FFF7B1FDFFF790FDFEE7BBB6D3AD5D
:10283000C4E30D0A000000006161610000000000B7
:1028400000000000002F0000000007000700001437
:102850007F147F1400242A7F2A1200626408132345
:1028600000364955225000000503000000001C22DC
:102870004100000041221C000014083E081400081A
:10288000083E0808000000A06000000808080808CA
:10289000000060600000002010080402003E514962
:1028A000453E0000427F4000004261514946002100
:1028B00041454B31001814127F100027454545391A
:1028C000003C4A4949300001710905030036494975
:1028D000493600064949291E00003636000000002E
:1028E0005636000000081422410000141414141479
:1028F0000000412214080002015109060032495922
:10290000513E007C1211127C007F49494936003E3D
:1029100041414122007F4141221C007F49494941F8
:10292000007F09090901003E4149497A007F0808F2
:10293000087F0000417F4100002040413F01007FAF
:1029400008142241007F40404040007F020C027F7B
:10295000007F0408107F003E4141413E007F09098D
:102960000906003E4151215E007F091929460046B3
:10297000494949310001017F0101003F4040403F8A
:10298000001F2040201F003F4038403F00631408D4
:1029900014630007087008070061514945430000AF
:1029A0007F41410000552A552A55000041417F00D2
:1029B00000040201020400404040404000000102C7
:1029C0000400002054545478007F484444380038B0
:1029D0004444442000384444487F00385454541838
:1029E00000087E0901020018A4A4A47C007F08044A
:1029F00004780000447D4000004080847D00007F1A
:102A0000102844000000417F4000007C0418047836
:102A1000007C0804047800384444443800FC242432
:102A200024180018242418FC007C0804040800481A
:102A30005454542000043F444020003C4040207C3B
:102A4000001C2040201C003C4030403C004428102A
:102A50002844001CA0A0A07C004464544C441414DE
:102A60001414141400000000000000000000000016
:102A700000000000000000F800000000000000332B
:102A80003000000000100C06100C060000000000D2
:102A90000000000040C07840C0784000043F0404BB
:102AA0003F040400007088FC08300000001820FF7C
:102AB000211E0000F008F000E018000000211C03B7
:102AC0001E211E0000F00888700000001E21232433
:102AD0001927211010160E00000000000000000051
:102AE00000000000000000E01804020000000007E1
:102AF0001820400000020418E000000000402018E8
:102B000007000000404080F0804040000202010FBA
:102B100001020200000000F0000000000101011F9E
:102B200001010100000000000000000080B0700002
:102B30000000000000000000000000000001010192
:102B40000101010100000000000000000030300021
:102B500000000000000000008060180400601806FB
:102B60000100000000E010080810E000000F102035
:102B700020100F00001010F8000000000020203F7F
:102B80002020000000700808088870000030282409
:102B900022213000003008888848300000182020AA
:102BA00020110E000000C02010F8000000070424CF
:102BB000243F240000F80888880808000019212014
:102BC00020110E0000E0108888180000000F11206E
:102BD00020110E0000380808C83808000000003F27
:102BE000000000000070880808887000001C222186
:102BF00021221C0000E010080810E0000000312233
:102C000022110F00000000C0C000000000000030D2
:102C10003000000000000080000000000000806024
:102C200000000000000080402010080000010204A5
:102C3000081020004040404040404000040404048C
:102C40000404040000081020408000000020100848
:102C500004020100007048080808F000000000307D
:102C600036010000C030C828E810E000071827240B
:102C700023140B000000C038E0000000203C2302B9
:102C80000227382008F8888888700000203F20201C
:102C900020110E00C030080808083800071820204E
:102CA0002010080008F808080810E000203F202045
:102CB00020100F0008F88888E8081000203F202026
:102CC0002320180008F88888E8081000203F20001A
:102CD00003000000C0300808083800000718202052
:102CE000221E020008F808000008F808203F210111
:102CF00001213F20000808F8080800000020203FBC
:102D00002020000000000808F8080800C08080802B
:102D10007F00000008F888C028180800203F200124
:102D20002638200008F8080000000000203F20207E
:102D30002020300008F8F800F8F80800203F003F95
:102D4000003F200008F830C00008F808203F2000AD
:102D500007183F00E01008080810E0000F102020BE
:102D600020100F0008F808080808F000203F210193
:102D700001010000E01008080810E0000F182424EA
:102D800038504F0008F8888888887000203F20005D
:102D9000030C302000708808080838000038202113
:102DA00021221C00180808F8080818000000203F1D
:102DB0002000000008F808000008F808001F202084
:102DC00020201F000878880000C838080000073855
:102DD0000E010000F80800F80008F800033C0700A6
:102DE000073C0300081868808068180820302C030E
:102DF000032C30200838C800C83808000000203FE5
:102E00002000000010080808C838080020382621D3
:102E100020201800000000FE020202000000007FD7
:102E200040404000000C30C00000000000000001E5
:102E30000638C00000020202FE00000000404040D0
:102E40007F000000000004020202040000000000F5
:102E50000000000000000000000000008080808072
:102E6000808080800002020400000000000000005A
:102E700000000000000080808080000000192422F3
:102E800022223F2008F8008080000000003F11202F
:102E900020110E000000008080800000000E112034
:102EA00020201100000000808088F800000E112012
:102EB00020103F200000808080800000001F222220
:102EC00022221300008080F0888888180020203F8C
:102ED000202000000000808080808000006B94949F
:102EE0009493600008F8008080800000203F21005B
:102EF00000203F2000809898000000000020203F24
:102F000020200000000000809898000000C0808011
:102F1000807F000008F8000080808000203F2402AD
:102F20002D302000000808F8000000000020203F9D
:102F3000202000008080808080808000203F200052
:102F40003F20003F8080008080800000203F2100E3
:102F500000203F200000808080800000001F202093
:102F600020201F00808000808000000080FFA120C2
:102F700020110E000000008080808000000E1120D3
:102F800020A0FF80808080008080800020203F2162
:102F90002000010000008080808080000033242415
:102FA00024241900008080E0808000000000001FC1
:102FB000202000008080000000808000001F202072
:102FC00020103F20808080000080808000010E3033
:102FD0000806010080800080008080800F300C0394
:102FE0000C300F0000808000808080000020312E97
:102FF0000E312000808080000080808080818E7073
:103000001806010000808080808080000021302C24
:103010002221300000000000807C0202000000003D
:10302000003F404000000000FF00000000000000E2
:10303000FF0000000002027C800000000040403FD2
:10304000000000000006010102020404000000006C
:1030500000000000010202030405060708090A0B2C
:103060000C0D0E0F10100000000000000000010207
:103070000304060708090000000001020304000021
:10308000A03000080000002014000000A027000865
:10309000B4300008140000209C040000B027000891
:1030A0000100000010000000000000000024F400F7
:0430B000000000001C
:04000005080000ED02
:00000001FF
